:020000040000FA
:04000000F5EF18F010
:10060000004469676974616C657320494900613D04
:1006100025642C623D252E336600494E46004E412E
:100620004E00696E66006E616E006C660000000E22
:1006300000017B6F000E7A6F30C08CF031C08DF0FE
:1006400032C08EF033C08FF08FAF16D0000E7B6FAC
:10065000010E7A6F8CC001F08DC002F08EC003F0E5
:100660008FC004F0B6EC18F001C08CF002C08DF021
:1006700003C08EF004C08FF0000E0001936F000ED7
:10068000926FD2C07FF0D3C080F07A517B11D8A492
:1006900002D0D6A513D07A517B11D8A404D0000E75
:1006A000656F2B0E03D0000E656F2D0E646F64C056
:1006B00000F1924B932B7F07D8A080078CC001F0EC
:1006C0008DC002F08EC003F08FC004F069EC14F00E
:1006D00001040210D8A44CD0BF0E356EFF0E366E4A
:1006E0003450376E386A35503726365038223850F5
:1006F00006E11A0E375CD8B002D0010E01D0000E10
:100700000001666F676B66516711D8B40DD0000E9B
:100710009225016E010E9321026E1A0E036E060ED3
:10072000046EC0EC17F00CD0000E9225016E010E85
:100730009321026E220E036E060E046EC0EC17F0BB
:100740000001FD0E7F27FF0E80232EC011F02FC069
:1007500012F0000E136E010E146E7FC015F080C0F3
:1007600016F01CEC16F011C02EF012C02FF0120083
:100770008CC001F08DC002F08EC003F08FC004F079
:1007800069EC14F001500210D8A435D0BF0E356EBC
:10079000FF0E366E3450376E386A35503726365075
:1007A0003822385006E11A0E375CD8B002D0010E5C
:1007B00001D0000E0001686F696B68516911D8B4EF
:1007C0000DD0000E9225016E010E9321026E1E0EB9
:1007D000036E060E046EC0EC17F0B2D7000E922521
:1007E000016E010E9321026E260E036E060E046E3C
:1007F000C0EC17F0A5D7000E0001946F000E956FA6
:10080000800E966F3F0E976F000E916F000E906FE7
:100810008CC001F08DC002F08EC003F08FC004F0D8
:10082000000E056E000E066E000E076E000E086EBE
:1008300069EC16F0D8A01ED076D094C001F095C017
:1008400002F096C003F097C004F0000E056E000E93
:10085000066E200E076E410E086E00EC0AF001C015
:1008600094F002C095F003C096F004C097F0000128
:10087000904B912B8CC01AF08DC01BF08EC01CF0D9
:100880008FC01DF0000E056E000E066E200E076E66
:10089000410E086E94C001F095C002F096C003F0BE
:1008A00097C004F000EC0AF001C01EF002C01FF077
:1008B00003C020F004C021F001EC14F0D8A01FD038
:1008C000BCD794C001F095C002F096C003F097C069
:1008D00004F0000E056E000E066E200E076E410E2F
:1008E000086E2FEC0DF001C094F002C095F003C02B
:1008F00096F004C097F000019007D8A091078CC033
:100900001AF08DC01BF08EC01CF08FC01DF094C07B
:100910001EF095C01FF096C020F097C021F001ECAA
:1009200014F0D8A0CED734C007F0086AE9EC17F06D
:1009300007500001816F81C07EF0670E8119D8A435
:1009400019D0D451D511D8A404D0000ED56F010E02
:10095000D46FD5BF05D0D55108E1D405D8B005D0A6
:10096000000E7D6F060E7C6F08D0D4C07CF0D5C021
:100970007DF003D0D5AFF9D7F3D7670E8119D8A48E
:1009800022D091AF06D0FC0E905DFF0E9159D8A0F9
:1009900018D0FF0E356EFF0E366E7CC037F07DC06E
:1009A00038F035503726365038229051375C385061
:1009B000800A396E9151800A3958D8A002D0660E4B
:1009C00001D0650E7E6F7CC074F07DC075F0670E3F
:1009D0008119D8A405D0660E7E19D8B491AF02D083
:1009E000744B752B660E7E19D8A416D091AF0CD01F
:1009F000000E946F000E956F800E966F3F0E976FEE
:100A0000000E916F000E906F670E8119D8B404D05C
:100A10009051742791517523000E8B6F000E8A6FD1
:100A20008CC082F08DC083F08EC084F08FC085F0C2
:100A300094C060F095C061F096C062F097C063F01A
:100A40007BD082C001F083C002F084C003F085C077
:100A500004F094C005F095C006F096C007F097C06A
:100A600008F02FEC0DF001C01AF002C01BF003C01B
:100A70001CF004C01DF097EC0FF01AC086F01BC0EC
:100A800087F01CC088F01DC089F086C001F087C0C7
:100A900002F088C003F089C004F0CFEC14F001C06C
:100AA00078F002C079F082C01AF083C01BF084C0D5
:100AB0001CF085C01DF094C005F095C006F096C0EE
:100AC00007F097C008F086C001F087C002F088C028
:100AD00003F089C004F000EC0AF001C01EF002C06F
:100AE0001FF003C020F004C021F00FEC18F01AC072
:100AF00082F01BC083F01CC084F01DC085F094C040
:100B000001F095C002F096C003F097C004F0000E0B
:100B1000056E000E066E200E076E410E086E2FEC5D
:100B20000DF001C094F002C095F003C096F004C02F
:100B300097F000018A4B8B2B74518A5D8B51800A90
:100B4000356E7551800A3558D8A07BD794C001F016
:100B500095C002F096C003F097C004F0000E056E39
:100B6000000E066EA00E076E400E086E00EC0AF036
:100B700001C086F002C087F003C088F004C089F08D
:100B800082C01AF083C01BF084C01CF085C01DF029
:100B900086C01EF087C01FF088C020F089C021F0F9
:100BA00001EC14F0D8B003D0000E000118D082C0C0
:100BB00001F083C002F084C003F085C004F086C059
:100BC00005F087C006F088C007F089C008F069EC1E
:100BD00016F0D8A00BD0000178B108D0000E866FB7
:100BE000000E876F000E886F000E896F8CC001F0B9
:100BF0008DC002F08EC003F08FC004F086C005F0F7
:100C000087C006F088C007F089C008F0A9EC0BF097
:100C100001C082F002C083F003C084F004C085F0FC
:100C200060C094F061C095F062C096F063C097F028
:100C3000650E00017E19D8B405D090C076F091C041
:100C400077F004D0000E776F000E766F000E736F92
:100C5000000E726F000E716F000E706F000E8B6FC2
:100C6000000E8A6FC6D082C001F083C002F084C03B
:100C700003F085C004F094C005F095C006F096C05E
:100C800007F097C008F02FEC0DF001C01AF002C079
:100C90001BF003C01CF004C01DF097EC0FF01AC04D
:100CA00086F01BC087F01CC088F01DC089F086C08C
:100CB00001F087C002F088C003F089C004F0CFECD7
:100CC00014F001C078F002C079F00001D6B90CD060
:100CD00078517911D8A408D0670E8119D8B477AFAC
:100CE00003D0704B712B39D072517311D8B477AFD8
:100CF00022D0000E9225D96E010E9321DA6E2E0EAF
:100D0000DF6E924B932B7F07D8A08007000E736F86
:100D1000010E726F10D0000E9225D96E010E932134
:100D2000DA6E300EDF6E924B932B7F07D8A08007D0
:100D30007007D8A0710770517111D8A4ECD7000EBC
:100D40009225D96E010E9321DA6E7851300FDF6E45
:100D5000924B932B7F07D8A0800782C01AF083C0E4
:100D60001BF084C01CF085C01DF094C005F095C038
:100D700006F096C007F097C008F086C001F087C063
:100D800002F088C003F089C004F000EC0AF001C052
:100D90001EF002C01FF003C020F004C021F00FECD1
:100DA00018F01AC082F01BC083F01CC084F01DC074
:100DB00085F094C001F095C002F096C003F097C092
:100DC00004F0000E056E000E066E200E076E410E3A
:100DD000086E2FEC0DF001C094F002C095F003C036
:100DE00096F004C097F000017607D8A077078A4BE9
:100DF0008B2B74518A5D8B51800A356E7551800A38
:100E00003558D8B008D093BF2ED7935104E14B0E7C
:100E1000925DD8A028D772517311D8B4D6A90AD040
:100E2000000E9225D96E010E9321DA6E2E0EDF6E22
:100E3000924B932B000E9225D96E010E9321DA6E00
:100E4000000EDF6E650E7E19D8A47FD4000E8B6F66
:100E50004F0E8A6F000E8A25D96E010E8B21DA6E35
:100E6000000EDF6E000E7B6F000E7A6F91AF08D020
:100E7000000E7B6F010E7A6F906D911FD8B0912B91
:100E8000000E7D6F020E7C6F2BD08A07D8A08B07D7
:100E9000000E8A25D96E010E8B21DA6E90C001F00A
:100EA00091C002F0000E046E0A0E036E34EC17F0CF
:100EB0000150300FDF6E90C001F091C002F0000EC3
:100EC000046E0A0E036EF2EC16F001C090F002C040
:100ED00091F000017C07D8A07D077F07D8A080078C
:100EE00090519111D8A4D1D77DBF05D07D51CDE1CE
:100EF0007C05D8B0CAD78A07D8A08B077A517B1156
:100F0000D8A404D0000E6B6F2B0E03D0000E6B6FB5
:100F10002D0E6A6F000E8A25D96E010E8B21DA6EB6
:100F20006AC0DFFF7F07D8A080078A07D8A08B0799
:100F3000BF0E356EFF0E366E3450376E386A355040
:100F4000372636503822385006E11A0E375CD8B0B2
:100F500002D0010E01D0000E6E6F6F6B6E516F11DB
:100F6000D8A404D0000E6D6F650E03D0000E6D6F17
:100F7000450E6C6F000E8A25D96E010E8B21DA6E3C
:100F80006CC0DFFF7F07D8A08007000E9225016E9E
:100F9000010E9321026E000E8A25036E010E8B2135
:100FA000046EC0EC17F0A5EF03F042C0D9FF43C0B8
:100FB000DAFFDECFF6FFDDCFF7FF0800F550250A98
:100FC000D8A404D242C0D9FF43C0DAFFDE2A000E03
:100FD000DD22000E0001D36F000ED26FD2C0D6F01A
:100FE000D3C0D7F0D469D56942C0D9FF43C0DAFF76
:100FF000DECFF6FFDDCFF7FF0800F5502E0AD8A4AC
:101000006DD0000ED56F000ED46F42C0D9FF43C023
:10101000DAFFDE2A000EDD2242C0D9FF43C0DAFF2C
:10102000DECFF6FFDDCFF7FF0800F5502A0AD8A47F
:101030001CD042C0D9FF43C0DAFFDE2A000EDD22F9
:1010400044C0D9FF45C0DAFFDFCF46F0020EDE26EE
:10105000DFCF47F0000EDD2246C0D9FF47C0DAFFE0
:10106000DECFD4F0DDCFD5F039D042C0D9FF43C0B8
:10107000DAFFDECF08F0DDCF09F016EC11F008C082
:10108000D4F009C0D5F007D042C0D9FF43C0DAFF81
:10109000DE2A000EDD22D00E466EFF0E476E42C0E5
:1010A000D9FF43C0DAFFDECFF6FFDDCFF7FF080040
:1010B000F550486E496A46504826475049224950E3
:1010C00006E10A0E485CD8B002D0010E01D0000E35
:1010D000526E536A52505310D8A4D6D742C0D9FF8B
:1010E00043C0DAFFDECFF6FFDDCFF7FF0800F55093
:1010F000076E086AE9EC17F007505A6E5A50D8B4D8
:1011000033D042C0D9FF43C0DAFFDECF46F0DDCF97
:1011100047F0010E4626000E472246C0F6FF47C0A4
:10112000F7FF0800F550076E086AE9EC17F0075062
:101130005B6E5B50D8B418D042C0D9FF43C0DAFF11
:10114000DECF46F0DDCF47F0020E4626000E4722E6
:1011500046C0F6FF47C0F7FF0800F550076E086A63
:10116000E9EC17F007505C6E42C0D9FF43C0DAFFCC
:10117000DECFF6FFDDCFF7FF0800F550640AD8B4E4
:101180000DD042C0D9FF43C0DAFFDECFF6FFDDCF7E
:10119000F7FF0800F550690AD8A43FD042C0D9FF34
:1011A00043C0DAFFDE2A000EDD2244C0D9FF45C06D
:1011B000DAFFDFCF46F0020EDE26DFCF47F0000E6B
:1011C000DD2246C0D9FF47C0DAFFDECF4AF0DDCFCF
:1011D0004BF0000E4BBEFF0E4C6E4D6E4E6E4F6EC2
:1011E000506E516E40C01CF041C01DF04AC01EF050
:1011F0004BC01FF04CC020F04DC021F04EC022F07B
:101200004FC023F050C024F051C025F073EC0EF015
:101210001CC040F01DC041F01200660E5A18D8A440
:101220003FD042C0D9FF43C0DAFFDECFF6FFDDCFAB
:10123000F7FF0800F5CF5DF042C0D9FF43C0DAFFE9
:10124000DE2A000EDD2244C0D9FF45C0DAFFDFCF21
:1012500046F0040EDE26DFCF47F0000EDD2246C04A
:10126000D9FF47C0DAFFDECF56F0DECF57F0DECF32
:1012700058F0DECF59F040C02EF041C02FF056C0DC
:1012800030F057C031F058C032F059C033F05DC073
:1012900034F017EC03F02EC040F02FC041F01200E4
:1012A0005A0E016E000E026E2A0E036E060E046EBA
:1012B000000E066E020E056E2CEC15F001500210A9
:1012C000D8A455D042C0D9FF43C0DAFFDECF46F0E4
:1012D000DDCF47F0010E4626000E472246C0F6FF3E
:1012E00047C0F7FF0800F5CF5DF0BF0E466EFF0E5A
:1012F000476E42C0D9FF43C0DAFFDECFF6FFDDCF35
:10130000F7FF0800F550486E496A46504826475096
:101310004922495006E11A0E485CD8B002D0010EAD
:1013200001D0000E546E556A5450551044C0D9FF78
:1013300045C0DAFFDFCF46F0040EDE26DFCF47F0F0
:10134000000EDD2246C0D9FF47C0DAFFDECF56F0DF
:10135000DECF57F0DECF58F0DECF59F0020E42C09C
:10136000D9FF43C0DAFFDE26000EDD2284D742C05B
:10137000D9FF43C0DAFFDECFF6FFDDCFF7FF08006D
:10138000F550250AD8A416D042C0D9FF43C0DAFFD1
:10139000DE2A000EDD22000E026E250E016E40C018
:1013A00003F041C004F07DEC15F0000E416E010E1B
:1013B000406E120042C0D9FF43C0DAFFDE2A000EA1
:1013C000DD22000E416E000E406E120042C0D9FFB9
:1013D00043C0DAFFDECFF6FFDDCFF7FF0800F550A0
:1013E000016E026A40C003F041C004F07DEC15F0CC
:1013F00042C0D9FF43C0DAFFDE2A000EDD22D5D776
:101400000450800B0D6E04500424136E03BE138031
:101410001350D8B40DD01328D8A408D0000E016EF4
:10142000000E026E000E036E000E046E038E08D0D6
:10143000000E016E000E026E000E036E000E046EB2
:101440000850800B0D1A08500824126E07BE128037
:101450001250D8B40DD01228D8A408D0000E056EB2
:10146000000E066E000E076E000E086E078E08D086
:10147000000E056E000E066E000E076E000E086E62
:101480001250D8B403D01350D8A409D0000E016E66
:10149000000E026E000E036E000E046E1200075066
:1014A0000102F3CF18F0F4CF19F018500E6E0F6A46
:1014B000106A116A1950146E156A166A176A065076
:1014C0000202F3CF18F0F4CF19F018500E26000ED8
:1014D0000F221022112219501426000E1522162256
:1014E000172205500302F3CF18F0F4CF19F018506B
:1014F0000E26000E0F221022112219501426000E63
:1015000015221622172210C011F00FC010F00EC0C5
:101510000FF00E6A05500202F3CF18F0F4CF19F065
:1015200018500E2619500F22000E1022000E112204
:1015300006500102F3CF18F0F4CF19F018500E2620
:1015400019500F22000E1022000E112210C011F0AF
:101550000FC010F00EC00FF00E6A05500102F3CF5D
:1015600018F0F4CF19F018500E2619500F22000E63
:101570001022000E112207500202F3CF18F0F4CF10
:1015800019F01850142619501522000E1622000EBC
:10159000172206500302F3CF18F0F4CF19F01850B9
:1015A000142619501522000E1622000E172207507D
:1015B0000302F3CF18F0F4CF19F01850096E195048
:1015C0000A6E0B6A0C6A0BC00CF00AC00BF009C063
:1015D0000AF0096A095014260A5015220B501622E7
:1015E0000C5017220EC009F00FC00AF010C00BF00B
:1015F00011C00CF0190E05D0D8900C320B320A3203
:101600000932E82EF9D7095014260A5015220B503A
:1016100016220C50172210C011F00FC010F00EC08F
:101620000FF00E6A125013C009F00A6A0926000E64
:101630000A22820E0924186EFF0E0A20196E0FD09E
:10164000D890143615361636173611BE1480D89039
:101650000E360F36103611361806D8A0190616AEFB
:10166000EFD7000E126E11AE17D0FF0E0E14096EDA
:10167000FF0E0F140A6EFF0E10140B6E7F0E111466
:101680000C6E09500A100B100C10D8B403D0010EC8
:10169000126E02D014B0FBD71250D8B41FD0010E76
:1016A0001426000E15221622172217A017D014C0D8
:1016B00009F015C00AF016C00BF017C00CF00C347E
:1016C0000C320B320A32093209C014F00AC015F08C
:1016D0000BC016F00CC017F0184A192A19BE0DD00D
:1016E000195003E11828D8A008D0000E146E000E7F
:1016F000156E800E166E7F0E20D019BE05D01950C3
:101700000EE11804D8B00BD0000E146E000E156E4A
:10171000000E166E000E176E000E0D6E0FD018C064
:1017200013F0FF0E1416FF0E15167F0E1616000E80
:10173000171613B0168ED8901330176E0D5017125F
:1017400014C001F015C002F016C003F017C004F079
:1017500012000450800B0D6E045004240F6E03BE63
:101760000F800F50D8B40DD00F28D8A408D0000E89
:10177000016E000E026E000E036E000E046E038EEC
:1017800006D0000E016E000E026E000E036E000EFB
:10179000046E0850800B0E6E0D500E18D8A40D8CE0
:1017A000085008240E6E07BE0E800E50D8B40DD01F
:1017B0000E28D8A408D0000E056E000E066E000E8E
:1017C000076E000E086E078E06D0000E056E000E26
:1017D000066E000E076E000E086E0F500E5CD8B03D
:1017E00022D00DAC02D0800E0D1A0FC010F00EC02A
:1017F0000FF010C00EF001C010F005C001F010C0D5
:1018000005F002C010F006C002F010C006F003C0E0
:1018100010F007C003F010C007F004C010F008C0BB
:1018200004F010C008F0000E106E0F500EC009F04A
:101830000A6A095E000E0A5A0ABE2CD00A5004E158
:101840001A0E095CD8A026D0015002100310041013
:10185000D8B402D0010E01D0000E106E000E016E41
:10186000000E026E000E036E000E046E0EC00FF02E
:1018700015D010A005D0D89010300109106E02D0FC
:10188000D890103201B0108E043404320332023288
:1018900001320F2A0E500F5CD8A0EBD70DBC28D018
:1018A0000F50D8A409D0000E016E000E026E000E7B
:1018B000036E000E046E120005500126065002222F
:1018C000075003220850042204A071D010A005D0B4
:1018D000D89010300109106E02D0D890103201B0AB
:1018E000108E043404320332023201320F2A5FD0E8
:1018F0000550015C06500258075003580450800AF6
:10190000096E0850800A0958D8B025D00150055CEE
:10191000096E025006580A6E035007580B6E0450A9
:1019200008580C6EFF0E0924016EFF0E0A20026E8D
:10193000FF0E0B20036EFF0E0C20046E800E0D1A9E
:10194000106C1050D8A40FD0010E0126000E0222F8
:101950000322042208D00550015E0650025A0750A7
:10196000035A0850045A0150021003100410D8A45E
:101970001CD01050D8A419D0000E016E000E026EBB
:10198000000E036E000E046E1200D890013602366F
:101990000336043610BE018010A002D0D88001D0DA
:1019A000D89010360F50D8A40F0603AEEED7000E15
:1019B0000E6E10AE0BD010C009F07F0E0916D8B411
:1019C00003D0010E0E6E02D001B0FBD70E50D8B47A
:1019D00020D0010E0126000E02220322042204A0C0
:1019E00018D001C009F002C00AF003C00BF004C017
:1019F0000CF00C340C320B320A32093209C001F0FF
:101A00000AC002F00BC003F00CC004F00F28D8A4E9
:101A10000F2A0F28D8B403D00F50D8A40DD0000E31
:101A2000016E000E026E000E036E000E046E0F506B
:101A3000D8A402D0000E0D6E0FA002D0038E01D0EC
:101A4000039ED8900F30046E0DBE048E01C001F0CD
:101A500002C002F003C003F004C004F012000450FE
:101A6000800B116E04500424186E03BE18801850A9
:101A7000D8B40DD01828D8A408D0000E016E000EDE
:101A8000026E000E036E000E046E038E06D0000E72
:101A9000016E000E026E000E036E000E046E085002
:101AA000800B111A08500824196E07BE19801950AE
:101AB000D8B40DD01928D8A408D0000E056E000E99
:101AC000066E000E076E000E086E078E06D0000E22
:101AD000056E000E066E000E076E000E086E0550B5
:101AE000061007100810D8A417D0000E016E000EC3
:101AF000026E000E036E000E046E800E03127F0E47
:101B000004121150041201C001F002C002F003C01F
:101B100003F004C004F012001850D8A409D0000E3D
:101B2000016E000E026E000E036E000E046E1200B7
:101B3000195018C009F00A6A095E000E0A5A7F0E91
:101B40000924126E000E0A20136E01C00DF002C0AF
:101B50000EF003C00FF004C010F0000E016E000E76
:101B6000026E000E036E000E046E000E146E000E68
:101B7000156E000E166E000E176E000E196E28D030
:101B80001950D8B411D0D8900D360E360F36103605
:101B9000D890013602360336043617BE0180D8903D
:101BA000143615361636173605500D5C06500E588D
:101BB00007500F5808501058D8A009D0178C05505E
:101BC0000D5E06500E5A07500F5A0850105A192A27
:101BD000190E1964D5D70D500E100F101010D8B46F
:101BE00011D014800FD0D890013602360336043657
:101BF00017BE0180D89014361536163617361206E1
:101C0000D8A0130603AEEFD7000E196E17AE17D08B
:101C1000FF0E1414096EFF0E15140A6EFF0E161433
:101C20000B6E7F0E17140C6E09500A100B100C105F
:101C3000D8B403D0010E196E02D001B0FBD71950F1
:101C4000D8B41FD0010E0126000E02220322042266
:101C500004A017D001C009F002C00AF003C00BF0C5
:101C600004C00CF00C340C320B320A32093209C0B9
:101C700001F00AC002F00BC003F00CC004F0124ADD
:101C8000132A13BE10D0135003E11228D8A00BD092
:101C9000000E136E1268000E016E000E026E000E32
:101CA000036E000E046E13BE05D0135011E1120432
:101CB000D8B00ED0000E136E000E126E000E016E24
:101CC000000E026E000E036E000E046E000E116E0A
:101CD00012C018F018A002D0038E01D0039ED89035
:101CE0001830046E0ED71EC036F01FC037F020C06B
:101CF00038F021C039F022C03AF023C03BF024C0B4
:101D00003CF025C03DF03DAE02D0010E01D0000EEA
:101D1000346E356A34503510D8B410D03D1E3C1E98
:101D20003B1E3A1E391E381E371E366C000E3722F7
:101D3000382239223A223B223C223D220001D5AFF3
:101D4000D693D5BF05D0D55108E1D405D8B005D07C
:101D5000000E316E010E306E04D0D4C030F0D5C00C
:101D600031F0D2C032F0D3C033F034503510D8A4A3
:101D700002D0D6A503D03206D8A03306000E3F6E9F
:101D80004F0E3E6E000E01014F6F7CD03E06D8A074
:101D90003F06000E3E24D96E010E3F20DA6E36C09B
:101DA00001F037C002F038C003F039C004F03AC087
:101DB00005F03BC006F03CC007F03DC008F00A0E3D
:101DC000096E000E0A6E000E0B6E000E0C6E000EF9
:101DD0000D6E000E0E6E000E0F6E000E106EE4EC17
:101DE00012F001C026F002C027F003C028F004C0A2
:101DF00029F005C02AF006C02BF007C02CF008C05F
:101E00002DF026C013F028C014F06DEC18F013501C
:101E1000300FDF6E3006D8A031063206D8A0330668
:101E200036C001F037C002F038C003F039C004F00A
:101E30003AC005F03BC006F03CC007F03DC008F0DA
:101E40000A0E096E000E0A6E000E0B6E000E0C6E6E
:101E5000000E0D6E000E0E6E000E0F6E000E106E58
:101E600072EC10F001C036F002C037F003C038F059
:101E700004C039F005C03AF006C03BF007C03CF0A2
:101E800008C03DF03FBE20D03F5003E13E04D8A043
:101E90001BD036503710381039103A103B103C1018
:101EA0003D10D8A473D731BE05D0315002E13004C3
:101EB000D8B06CD733BE08D0335003E13204D8A079
:101EC00003D00001D6B362D734503510D8A403D064
:101ED0000001D6A517D03E06D8A03F0634503510D5
:101EE000D8A404D0000E2F6E2B0E03D0000E2F6E40
:101EF0002D0E2E6E000E3E24D96E010E3F20DA6E9E
:101F00002EC0DFFF1CC011F01DC012F0000E3E24D9
:101F1000136E010E3F20146E32C015F033C016F060
:101F20001CEC16F011C01CF012C01DF01200C8C04D
:101F30002AF0C9C02BF0CAC02CF0CBC02DF01AC0BB
:101F40002AF01BC02BF01CC02CF01DC02DF0810E00
:101F50001E6EFF0E1F6E2AC020F02BC021F02CC079
:101F600022F02DC023F0180E05D0D8902332223253
:101F700021322032E82EF9D720501E24286E000E80
:101F80001F20296E29BE0FD0295004E1170E285CAE
:101F9000D8A009D01AC01AF01BC01BF01CC01CF03E
:101FA0001DC01DF0120029BE5ED028C01EF0FF0E1D
:101FB0001F6EFF0E206E7F0E216E000E226E1E66BB
:101FC00001D007D022342232213220321F321E2E7D
:101FD000F6D71FC024F020C025F021C026F022C073
:101FE00027F024502A141E6E25502B141F6E2650E5
:101FF0002C14206E27502D14216E1E501F102010FF
:102000002110D8B4C7D72AC01EF02BC01FF02CC097
:1020100020F02DC021F0200E05D0D89021322032A2
:102020001F321E32E82EF9D71E501F10201021102B
:10203000D8B408D024502A2625502B2226502C22F2
:1020400027502D22241C1E6E251C1F6E261C206E60
:10205000271C216E1E502A161F502B1620502C169E
:1020600021502D1636D02AC01EF02BC01FF02CC0D8
:1020700020F02DC021F0200E05D0D8902132203242
:102080001F321E32E82EF9D71E501F1020102110CB
:10209000D8A408D0000E2A6E000E2B6E000E2C6EF7
:1020A000000E16D0D8902A341E6E2B341F6E2C349E
:1020B000206E2D34216E1E501F1020102110D8B418
:1020C00008D0000E2A6E000E2B6E800E2C6EBF0EF6
:1020D0002D6E2AC01AF02BC01BF02CC01CF02DC096
:1020E0001DF01200000E126E10AE12D0101E0F1E48
:1020F0000E1E0D1E0C1E0B1E0A1E096C000E0A225F
:102100000B220C220D220E220F221022010E126E23
:1021100008AE12D0081E071E061E051E041E031E52
:10212000021E016C000E0222032204220522062256
:1021300007220822010E121A20EE13F0070EDE6AA3
:10214000E806FDE209500A100B100C100D100E10DD
:102150000F101010D8B446D0010E116E0AD0D890CE
:1021600009360A360B360C360D360E360F3610365B
:10217000112A10AEF4D7D890133614361536163609
:102180001736183619361A360950015C0A500258AB
:102190000B5003580C5004580D5005580E5006585B
:1021A0000F50075810500858D8A011D00950015EA0
:1021B0000A50025A0B50035A0C50045A0D50055A3B
:1021C0000E50065A0F50075A1050085A1380D890D4
:1021D00010320F320E320D320C320B320A3209320B
:1021E000112EC9D71250D8B410D01A1E191E181E9D
:1021F000171E161E151E141E136C000E1422152217
:1022000016221722182219221A2213C001F014C014
:1022100002F015C003F016C004F017C005F018C096
:1022200006F019C007F01AC008F01200000E166E72
:10223000000E156E000E0F6E000E0E6E02D0084AD4
:10224000092A010E146E08C0F6FF09C0F7FF080046
:10225000F550200AD8B418D0F70E0A6EFF0E0B6E98
:1022600008C0F6FF09C0F7FF0800F5500C6E0D6AB4
:102270000A500C260B500D220D5004E1050E0C5C8B
:10228000D8A002D0000E146E14C010F0116A1050C5
:102290001110D8B408D0D3D7000E0F6E010E0E6EF9
:1022A000084A092A2ED008C0F6FF09C0F7FF080027
:1022B000F5500A6E0B6A0B50000AD8A422D00A50BF
:1022C0002B0AD8B4EDD7060AD8B4E6D71AD015C071
:1022D00001F016C002F0000E046E0A0E036EE2EC6E
:1022E00018F008C0F6FF09C0F7FF0800F550015EBE
:1022F000000E025A300E0124156E000E0220166EDA
:10230000CFD7D00E0A6EFF0E0B6E08C0F6FF09C0C5
:10231000F7FF0800F5500C6E0D6A0A500C260B50A2
:102320000D220D5006E10A0E0C5CD8B002D0010E51
:1023300001D0000E126E136A12501310D8A4C7D722
:102340000E500F10D8A40DD015C00AF016C00BF017
:102350000A1E0B1E0A4A0B2A0AC008F00BC009F01D
:10236000120015C008F016C009F01200036E8D901F
:102370008D82016A03AE01D0012A010E01160132DD
:1023800001328C5001187F0B01188C6E03C001F0D4
:10239000060E026ED8900132022EFCD7010E0116F5
:1023A000013A014601468C500118BF0B01188C6E92
:1023B00003C001F0050E026ED8900132022EFCD748
:1023C000010E0116013A01468C500118DF0B01186D
:1023D0008C6E03C001F0013A0F0E0116010E0116BA
:1023E000013A8C500118EF0B01188C6E030EE82E89
:1023F000FED700F08D80060EE82EFED700D08D901F
:1024000003C001F0D8900132D8900132D890013247
:10241000010E0116013201328C5001187F0B011898
:102420008C6E03C001F0D8900132D8900132010EB9
:102430000116013A014601468C500118BF0B0118E4
:102440008C6E03C001F0D8900132010E0116013AE2
:1024500001468C500118DF0B01188C6E03C001F08F
:10246000010E0116013A8C500118EF0B01188C6E09
:10247000030EE82EFED700F08D80060EE82EFED764
:1024800000D08D90060EE82EFED700D01D0E016EF6
:10249000910EE82EFED7012EFCD700F01200036E3D
:1024A0008D908D92016A03AE01D0012A010E0116B2
:1024B000013201328C5001187F0B01188C6E03C061
:1024C00001F0060E026ED8900132022EFCD7010EEA
:1024D0000116013A014601468C500118BF0B011844
:1024E0008C6E03C001F0050E026ED8900132022EF0
:1024F000FCD7010E0116013A01468C500118DF0B82
:1025000001188C6E03C001F0013A0F0E0116010E86
:102510000116013A8C500118EF0B01188C6E030E56
:10252000E82EFED700F08D80060EE82EFED700D0F4
:102530008D9003C001F0D8900132D8900132D8902C
:102540000132010E0116013201328C5001187F0B4D
:1025500001188C6E03C001F0D8900132D89001327E
:10256000010E0116013A014601468C500118BF0BBD
:1025700001188C6E03C001F0D8900132010E0116D3
:10258000013A01468C500118DF0B01188C6E03C014
:1025900001F0010E0116013A8C500118EF0B0118E1
:1025A0008C6E030EE82EFED700F08D80060EE82E0E
:1025B000FED700D08D901D0E016E910EE82EFED735
:1025C000012EFCD700F01200000E126E08AE12D0E1
:1025D000081E071E061E051E041E031E021E016C99
:1025E000000E0222032204220522062207220822CC
:1025F000010E126E10AE10D0101E0F1E0E1E0D1EFC
:102600000C1E0B1E0A1E096C000E0A220B220C2245
:102610000D220E220F22102209500A100B100C104E
:102620000D100E100F101010D8B43CD0010E116E0A
:102630000AD0D89009360A360B360C360D360E36CF
:102640000F361036112A10AEF4D70950015C0A502B
:1026500002580B5003580C5004580D5005580E509A
:1026600006580F50075810500858D8A010D00950DD
:10267000015E0A50025A0B50035A0C50045A0D5076
:10268000055A0E50065A0F50075A1050085AD89043
:1026900010320F320E320D320C320B320A32093246
:1026A000112ED3D71250D8B410D0081E071E061E04
:1026B000051E041E031E021E016C000E02220322D0
:1026C0000422052206220722082201C001F002C0CE
:1026D00002F003C003F004C004F005C005F006C01A
:1026E00006F007C007F008C008F01200959E959C00
:1026F000959A9598969096928C9E8C9C8C9A8C9894
:102700008D908D921D0E046E910EE82EFED7042E34
:10271000FCD700F01D0E046E910EE82EFED7042E9D
:10272000FCD700F01D0E046E910EE82EFED7042E8D
:10273000FCD700F01D0E046E910EE82EFED7042E7D
:10274000FCD700F01D0E046E910EE82EFED7042E6D
:10275000FCD700F01D0E046E910EE82EFED7042E5D
:10276000FCD700F0010E056E8C9E8C9C8C8A8C88A8
:102770008D908D928C9E8C9C8C8A8C888D808D9275
:10278000060EE82EFED700D08C9E8C9C8C8A8C88FE
:102790008D908D921D0E046E910EE82EFED7042EA4
:1027A000FCD700F0052A030E0564DED78C9E8C9CB6
:1027B0008C8A8C988D908D928C9E8C9C8C8A8C9817
:1027C0008D808D92060EE82EFED700D08C9E8C9CBC
:1027D0008C8A8C988D908D921D0E046E910EE82E31
:1027E000FED7042EFCD700F0280E4FEC12F0100E8E
:1027F0004FEC12F0010E4FEC12F00F0E4FEC12F0F6
:102800001200000E1A14226E000E1B14236E800E8E
:102810001C14246E7F0E1D14256E225023102410CC
:102820002510D8A408D0000E1A6E000E1B6E000EE4
:102830001C6E000E1D6E000E1E14226E000E1F1464
:10284000236E800E2014246E7F0E2114256E2250DC
:10285000231024102510D8A408D0000E1E6E000EE0
:102860001F6E000E206E000E216E1DAE09D01A6C78
:102870001B1ED8B01B2A1C1ED8B01C2A800E1D5649
:1028800021AE09D01E6C1F1ED8B01F2A201ED8B042
:10289000202A800E2156000E1A1A000E1B1A000E56
:1028A0001C1A800E1D1A000E1E1A000E1F1A000E92
:1028B000201A800E211A1E501A5C1F501B582050DF
:1028C0001C5821501D58D8B002D0D8901200D88082
:1028D0001200CCC00BF0CDC00CF0CEC00DF0CFC0BC
:1028E0000EF001C00BF002C00CF003C00DF004C0EC
:1028F0000EF00BC005F00CC006F00DC007F00EC0C6
:1029000008F0180E05D0D89008320732063205328A
:10291000E82EF9D70550096E0A6A09500A10D8A4A2
:1029200019D0D8900B34056E0C34066E0D34076E3A
:102930000E34086E0550061007100810D8A405D0F4
:10294000000E026E020E016E1200000E026E030EE9
:10295000016E120009280A10D8A41CD00BC005F083
:102960000CC006F00DC007F00EC008F0090ED8909C
:102970000536063607360836E82EF9D70550061014
:1029800007100810D8A402D0010E01D0000E016E6D
:10299000026A1200000E026E040E016E1200033471
:1029A00004340A6E0A50D8A409D0000E016E000E3D
:1029B000026E000E036E000E046E120001C005F0E0
:1029C00002C006F003C007F004C008F0200E05D0D6
:1029D000D8900832073206320532E82EF9D7055072
:1029E000096E038EFF0E0116FF0E0216FF0E031670
:1029F000000E0416960E0A5E0AAE0DD00A50800A2A
:102A0000970FD8A0D2D7D8900432033202320132C5
:102A10000A3EF9D70DD01F0E0A6407D0C6D7D8904A
:102A200001360236033604360A060A50D8A4F7D710
:102A30000950D8B408D0041E031E021E016C000EFB
:102A400002220322042201C001F002C002F003C0EE
:102A500003F004C004F0120001C008F002C009F045
:102A600003C00AF004C00BF00506D8A0060605282E
:102A70000FE10628D8A40CD0000E026E000E016EE5
:102A80001200084A092A0A4A0B2A0506D8A0060697
:102A900008C0D9FF09C0DAFFDF50D8B41CD00AC083
:102AA000F6FF0BC0F7FF0800F5500009D8B413D0AB
:102AB00005500610D8B40FD008C0D9FF09C0DAFFFE
:102AC000DF50076E0AC0F6FF0BC0F7FF0800F55095
:102AD0000718D8B4D6D708C0D9FF09C0DAFFDF502D
:102AE000076E0AC0F6FF0BC0F7FF0800F550075C41
:102AF000016E026AD8A00206120003500410D8B476
:102B000004D003500410D8A404D0015009EC19F0EB
:102B1000120020EE04F00350D9260450DA22DE50D1
:102B2000DE10D8B416D020EE04F00350D92604509D
:102B3000DA2210EE02F00350E1260450E222DE50C9
:102B4000E65CE650800A096EDE50800A0958D8B06B
:102B5000120020EE02F00350D9260450DA22DECF14
:102B600005F0DDCF06F003C0D9FF04C0DAFFDECFE9
:102B700007F0DDCF08F005500724D96E0650082075
:102B8000DA6E01C0DFFF20EE02F00350D9260450B8
:102B9000DA22DE2A000EDD221200096E0DD004506A
:102BA000800F08D00450C00F05D00450940F02D0FD
:102BB0000450D40F0A6E14D00950076E086A0850EA
:102BC000000AD8A40DD00750010AD8B4E8D7030AE8
:102BD000D8B4E8D7010AD8B4E8D7070AD8B4E8D7F8
:102BE0000A504FEC12F014D005C0F6FF06C0F7FFF4
:102BF000F86A050EF76403D00800F55005D0F6CF4B
:102C0000E1FFF7CFE2FFE750B6EC11F0054A062AE4
:102C100005C0F6FF06C0F7FFF86A050EF76403D09B
:102C20000800F55005D0F6CFE1FFF7CFE2FFE750FF
:102C30000009D8B41200D8D70001D6A10AD013C019
:102C40000AF014C00BF011C00CF012C00DF051ECE2
:102C500018F016BE05D015C01AF016C01BF004D02F
:102C6000000E1B6E000E1A6E000E196E000E186E0E
:102C70000CD0000E026E200E016E11C003F012C0C7
:102C800004F07DEC15F0184A192A1A50185C1950F6
:102C9000800A176E1B50800A1758D8A0EAD7000187
:102CA000D6B10AD013C00AF014C00BF011C00CF05A
:102CB00012C00DF051EC18F013C001F014C002F076
:102CC000CDEC18F01A500124116E1B500220126E28
:102CD0001200000E0114096E000E02140A6E800E1E
:102CE00003140B6E7F0E04140C6E09500A100B10A7
:102CF0000C10D8A408D0000E016E000E026E000E5B
:102D0000036E000E046E000E0514096E000E06140C
:102D10000A6E800E07140B6E7F0E08140C6E09509D
:102D20000A100B100C10D8A408D0000E056E000E6F
:102D3000066E000E076E000E086E055001180AE1BF
:102D40000650021807E10750031804E10850041860
:102D5000D8B402D0D8901200D8801200000E000122
:102D6000C76F1F0EC66FF90EC26F0F0EC36F490EED
:102D7000C46F400EC56F06EC19F076EC13F00C0E24
:102D80004FEC12F0000E046E010E056E060E066E7C
:102D9000010ECDEC15F0140E4FEC12F0410EB6EC16
:102DA00011F0B20E00019E6F000E9F6F0E0EA06F0D
:102DB000060EA16F000EA36F1F0EA26FC2C0A4F07B
:102DC000C3C0A5F0C4C0A6F0C5C0A7F097EC17F02B
:102DD000000E046EB20E056E000E066E020ECDECF5
:102DE00015F0FFD7000E066E04AE06D0036C041E6D
:102DF000D8B0042A010E066E02AE06D0016C021E87
:102E0000D8B0022A010E061A000E086E000E076ED8
:102E100003500410D8B41CD0010E056E04D0D89015
:102E200003360436052A04AEFAD7D890073608369A
:102E30000350015C04500258D8A005D00350015E35
:102E40000450025A0780D89004320332052EEDD781
:102E50000650D8B404D0076C081ED8B0082A07C0A2
:102E600001F008C002F01200000E066E02AE06D09D
:102E7000016C021ED8B0022A010E066E04AE04D008
:102E8000036C041ED8B0042A03500410D8B418D020
:102E9000010E056E04D0D89003360436052A04AE20
:102EA000FAD70350015C04500258D8A004D0035054
:102EB000015E0450025AD89004320332052EF1D735
:102EC0000650D8B404D0016C021ED8B0022A01C04A
:102ED00001F002C002F012009AC05EF09BC05FF0E9
:102EE000000E0001D16F000ED06F13D098C040F0DB
:102EF00099C041F05E0E426E000E436E9CC044F0DD
:102F00009DC045F0D5EC07F040500001D02741505E
:102F1000D1235EC0F6FF5FC0F7FF0800F55000093F
:102F2000D8A4E4D7D0C098F0D1C099F01200A20E76
:102F30000001AA6F000EAB6F9EC0ACF09FC0ADF059
:102F4000000EAF6F000EAE6F000EB16F000EB06FCF
:102F5000AC0E986F000E996FA0C09AF0A1C09BF0C4
:102F6000AA0E9C6F000E9D6F6CEC17F00001AE5125
:102F70009E25D96EAF519F21DA6E000EDF6E1200D2
:102F800003C007F004C008F001C009F002C00AF055
:102F90000750056E0850066E074A082A05C0F6FF5E
:102FA00006C0F7FFF86A09C0D9FF0AC0DAFF094A6C
:102FB0000A2A050EF76403D00800F55005D0F6CFB5
:102FC000E1FFF7CFE2FFE750DF6EDF50D8B4120029
:102FD000DFD7BF0E096EFF0E0A6E07C00BF008C0E8
:102FE0000CF009500B260A500C220C5006E11A0E68
:102FF0000B5CD8B002D0010E01D0000E0D6E0E6A2F
:103000000D500E10D8B406D0200E0710076E0850D1
:10301000086E120007C007F008C008F01200000E8A
:103020001E1A000E1F1A000E201A800E211A1AC036
:1030300001F01BC002F01CC003F01DC004F01EC054
:1030400005F01FC006F020C007F021C008F0A9EC71
:103050000BF001C01AF002C01BF003C01CF004C04A
:103060001DF01200010E076E200E01180210D8B4D8
:1030700014D0F70E036EFF0E046E01C005F002C0FF
:1030800006F00350052604500622065004E1050E02
:10309000055CD8A002D0000E076E07C001F0026ADE
:1030A0001200000E106E000E0F6E0BD00EC001F05D
:1030B000026A0CC003F00DC004F07DEC15F00F4A5D
:1030C000102A0F500A24D96E10500B20DA6EDF50F0
:1030D0000E6E0E50D8B41200E9D714BE05D01450AD
:1030E00010E11304D8B00DD013C015F014C016F0C1
:1030F000151E161E154A162A15C013F016C014F018
:10310000120013C013F014C014F01200BF0E036EAF
:10311000FF0E046E01C005F002C006F00350052644
:1031200004500622065006E11A0E055CD8B002D003
:10313000010E01D0000E016E026A1200D00E036E65
:10314000FF0E046E01C005F002C006F00350052614
:1031500004500622065006E10A0E055CD8B002D0E3
:10316000010E01D0000E016E026A12000150021021
:1031700003100410D8B408D0000E011A000E021A71
:10318000000E031A800E041A01C001F002C002F002
:1031900003C003F004C004F0120001C003F002C039
:1031A00004F002D0014A022A01C0D9FF02C0DAFFAE
:1031B000DF50D8A4F7D70350015C016E04500258C9
:1031C000026E120001500302F3CF05F0F4CF06F0B7
:1031D00001500402F350062602500302F350062663
:1031E00005C001F006C002F0120001EE00F0500E22
:1031F000EE6AE806FDE100EEC8F0100EEE6AE806A1
:10320000FDE1000EF86E0001AEEF16F0700ED31265
:043210001200120096
:020000040020DA
:08000000FFFFFFFFFFFFFFFF00
:020000040030CA
:0E000000FF281E3CFFBD81FF0FC00FE00F4028
:00000001FF
